{
  "_format": "hh-sol-artifact-1",
  "contractName": "NFTCollection",
  "sourceName": "contracts/NFTCollection.sol",
  "abi": [
    {
      "inputs": [],
      "stateMutability": "nonpayable",
      "type": "constructor"
    },
    {
      "inputs": [
        {
          "internalType": "address",
          "name": "sender",
          "type": "address"
        },
        {
          "internalType": "uint256",
          "name": "tokenId",
          "type": "uint256"
        },
        {
          "internalType": "address",
          "name": "owner",
          "type": "address"
        }
      ],
      "name": "ERC721IncorrectOwner",
      "type": "error"
    },
    {
      "inputs": [
        {
          "internalType": "address",
          "name": "operator",
          "type": "address"
        },
        {
          "internalType": "uint256",
          "name": "tokenId",
          "type": "uint256"
        }
      ],
      "name": "ERC721InsufficientApproval",
      "type": "error"
    },
    {
      "inputs": [
        {
          "internalType": "address",
          "name": "approver",
          "type": "address"
        }
      ],
      "name": "ERC721InvalidApprover",
      "type": "error"
    },
    {
      "inputs": [
        {
          "internalType": "address",
          "name": "operator",
          "type": "address"
        }
      ],
      "name": "ERC721InvalidOperator",
      "type": "error"
    },
    {
      "inputs": [
        {
          "internalType": "address",
          "name": "owner",
          "type": "address"
        }
      ],
      "name": "ERC721InvalidOwner",
      "type": "error"
    },
    {
      "inputs": [
        {
          "internalType": "address",
          "name": "receiver",
          "type": "address"
        }
      ],
      "name": "ERC721InvalidReceiver",
      "type": "error"
    },
    {
      "inputs": [
        {
          "internalType": "address",
          "name": "sender",
          "type": "address"
        }
      ],
      "name": "ERC721InvalidSender",
      "type": "error"
    },
    {
      "inputs": [
        {
          "internalType": "uint256",
          "name": "tokenId",
          "type": "uint256"
        }
      ],
      "name": "ERC721NonexistentToken",
      "type": "error"
    },
    {
      "inputs": [
        {
          "internalType": "address",
          "name": "owner",
          "type": "address"
        }
      ],
      "name": "OwnableInvalidOwner",
      "type": "error"
    },
    {
      "inputs": [
        {
          "internalType": "address",
          "name": "account",
          "type": "address"
        }
      ],
      "name": "OwnableUnauthorizedAccount",
      "type": "error"
    },
    {
      "anonymous": false,
      "inputs": [
        {
          "indexed": true,
          "internalType": "address",
          "name": "owner",
          "type": "address"
        },
        {
          "indexed": true,
          "internalType": "address",
          "name": "approved",
          "type": "address"
        },
        {
          "indexed": true,
          "internalType": "uint256",
          "name": "tokenId",
          "type": "uint256"
        }
      ],
      "name": "Approval",
      "type": "event"
    },
    {
      "anonymous": false,
      "inputs": [
        {
          "indexed": true,
          "internalType": "address",
          "name": "owner",
          "type": "address"
        },
        {
          "indexed": true,
          "internalType": "address",
          "name": "operator",
          "type": "address"
        },
        {
          "indexed": false,
          "internalType": "bool",
          "name": "approved",
          "type": "bool"
        }
      ],
      "name": "ApprovalForAll",
      "type": "event"
    },
    {
      "anonymous": false,
      "inputs": [
        {
          "indexed": false,
          "internalType": "uint256",
          "name": "_fromTokenId",
          "type": "uint256"
        },
        {
          "indexed": false,
          "internalType": "uint256",
          "name": "_toTokenId",
          "type": "uint256"
        }
      ],
      "name": "BatchMetadataUpdate",
      "type": "event"
    },
    {
      "anonymous": false,
      "inputs": [
        {
          "indexed": false,
          "internalType": "uint256",
          "name": "_tokenId",
          "type": "uint256"
        }
      ],
      "name": "MetadataUpdate",
      "type": "event"
    },
    {
      "anonymous": false,
      "inputs": [
        {
          "indexed": true,
          "internalType": "uint256",
          "name": "tokenId",
          "type": "uint256"
        },
        {
          "indexed": true,
          "internalType": "address",
          "name": "creator",
          "type": "address"
        },
        {
          "indexed": false,
          "internalType": "string",
          "name": "tokenURI",
          "type": "string"
        }
      ],
      "name": "NFTMinted",
      "type": "event"
    },
    {
      "anonymous": false,
      "inputs": [
        {
          "indexed": true,
          "internalType": "address",
          "name": "previousOwner",
          "type": "address"
        },
        {
          "indexed": true,
          "internalType": "address",
          "name": "newOwner",
          "type": "address"
        }
      ],
      "name": "OwnershipTransferred",
      "type": "event"
    },
    {
      "anonymous": false,
      "inputs": [
        {
          "indexed": true,
          "internalType": "address",
          "name": "from",
          "type": "address"
        },
        {
          "indexed": true,
          "internalType": "address",
          "name": "to",
          "type": "address"
        },
        {
          "indexed": true,
          "internalType": "uint256",
          "name": "tokenId",
          "type": "uint256"
        }
      ],
      "name": "Transfer",
      "type": "event"
    },
    {
      "inputs": [
        {
          "internalType": "address",
          "name": "to",
          "type": "address"
        },
        {
          "internalType": "uint256",
          "name": "tokenId",
          "type": "uint256"
        }
      ],
      "name": "approve",
      "outputs": [],
      "stateMutability": "nonpayable",
      "type": "function"
    },
    {
      "inputs": [
        {
          "internalType": "address",
          "name": "owner",
          "type": "address"
        }
      ],
      "name": "balanceOf",
      "outputs": [
        {
          "internalType": "uint256",
          "name": "",
          "type": "uint256"
        }
      ],
      "stateMutability": "view",
      "type": "function"
    },
    {
      "inputs": [
        {
          "internalType": "uint256",
          "name": "",
          "type": "uint256"
        }
      ],
      "name": "creators",
      "outputs": [
        {
          "internalType": "address",
          "name": "",
          "type": "address"
        }
      ],
      "stateMutability": "view",
      "type": "function"
    },
    {
      "inputs": [
        {
          "internalType": "uint256",
          "name": "tokenId",
          "type": "uint256"
        }
      ],
      "name": "getApproved",
      "outputs": [
        {
          "internalType": "address",
          "name": "",
          "type": "address"
        }
      ],
      "stateMutability": "view",
      "type": "function"
    },
    {
      "inputs": [],
      "name": "getCurrentTokenId",
      "outputs": [
        {
          "internalType": "uint256",
          "name": "",
          "type": "uint256"
        }
      ],
      "stateMutability": "view",
      "type": "function"
    },
    {
      "inputs": [
        {
          "internalType": "uint256",
          "name": "tokenId",
          "type": "uint256"
        }
      ],
      "name": "getRoyaltyInfo",
      "outputs": [
        {
          "internalType": "address",
          "name": "",
          "type": "address"
        },
        {
          "internalType": "uint256",
          "name": "",
          "type": "uint256"
        }
      ],
      "stateMutability": "view",
      "type": "function"
    },
    {
      "inputs": [
        {
          "internalType": "address",
          "name": "owner",
          "type": "address"
        },
        {
          "internalType": "address",
          "name": "operator",
          "type": "address"
        }
      ],
      "name": "isApprovedForAll",
      "outputs": [
        {
          "internalType": "bool",
          "name": "",
          "type": "bool"
        }
      ],
      "stateMutability": "view",
      "type": "function"
    },
    {
      "inputs": [
        {
          "internalType": "address",
          "name": "recipient",
          "type": "address"
        },
        {
          "internalType": "string",
          "name": "tokenURI",
          "type": "string"
        },
        {
          "internalType": "uint256",
          "name": "royalty",
          "type": "uint256"
        }
      ],
      "name": "mintNFT",
      "outputs": [
        {
          "internalType": "uint256",
          "name": "",
          "type": "uint256"
        }
      ],
      "stateMutability": "nonpayable",
      "type": "function"
    },
    {
      "inputs": [],
      "name": "name",
      "outputs": [
        {
          "internalType": "string",
          "name": "",
          "type": "string"
        }
      ],
      "stateMutability": "view",
      "type": "function"
    },
    {
      "inputs": [],
      "name": "owner",
      "outputs": [
        {
          "internalType": "address",
          "name": "",
          "type": "address"
        }
      ],
      "stateMutability": "view",
      "type": "function"
    },
    {
      "inputs": [
        {
          "internalType": "uint256",
          "name": "tokenId",
          "type": "uint256"
        }
      ],
      "name": "ownerOf",
      "outputs": [
        {
          "internalType": "address",
          "name": "",
          "type": "address"
        }
      ],
      "stateMutability": "view",
      "type": "function"
    },
    {
      "inputs": [],
      "name": "renounceOwnership",
      "outputs": [],
      "stateMutability": "nonpayable",
      "type": "function"
    },
    {
      "inputs": [
        {
          "internalType": "uint256",
          "name": "",
          "type": "uint256"
        }
      ],
      "name": "royaltyPercentage",
      "outputs": [
        {
          "internalType": "uint256",
          "name": "",
          "type": "uint256"
        }
      ],
      "stateMutability": "view",
      "type": "function"
    },
    {
      "inputs": [
        {
          "internalType": "address",
          "name": "from",
          "type": "address"
        },
        {
          "internalType": "address",
          "name": "to",
          "type": "address"
        },
        {
          "internalType": "uint256",
          "name": "tokenId",
          "type": "uint256"
        }
      ],
      "name": "safeTransferFrom",
      "outputs": [],
      "stateMutability": "nonpayable",
      "type": "function"
    },
    {
      "inputs": [
        {
          "internalType": "address",
          "name": "from",
          "type": "address"
        },
        {
          "internalType": "address",
          "name": "to",
          "type": "address"
        },
        {
          "internalType": "uint256",
          "name": "tokenId",
          "type": "uint256"
        },
        {
          "internalType": "bytes",
          "name": "data",
          "type": "bytes"
        }
      ],
      "name": "safeTransferFrom",
      "outputs": [],
      "stateMutability": "nonpayable",
      "type": "function"
    },
    {
      "inputs": [
        {
          "internalType": "address",
          "name": "operator",
          "type": "address"
        },
        {
          "internalType": "bool",
          "name": "approved",
          "type": "bool"
        }
      ],
      "name": "setApprovalForAll",
      "outputs": [],
      "stateMutability": "nonpayable",
      "type": "function"
    },
    {
      "inputs": [
        {
          "internalType": "bytes4",
          "name": "interfaceId",
          "type": "bytes4"
        }
      ],
      "name": "supportsInterface",
      "outputs": [
        {
          "internalType": "bool",
          "name": "",
          "type": "bool"
        }
      ],
      "stateMutability": "view",
      "type": "function"
    },
    {
      "inputs": [],
      "name": "symbol",
      "outputs": [
        {
          "internalType": "string",
          "name": "",
          "type": "string"
        }
      ],
      "stateMutability": "view",
      "type": "function"
    },
    {
      "inputs": [
        {
          "internalType": "uint256",
          "name": "tokenId",
          "type": "uint256"
        }
      ],
      "name": "tokenURI",
      "outputs": [
        {
          "internalType": "string",
          "name": "",
          "type": "string"
        }
      ],
      "stateMutability": "view",
      "type": "function"
    },
    {
      "inputs": [
        {
          "internalType": "address",
          "name": "from",
          "type": "address"
        },
        {
          "internalType": "address",
          "name": "to",
          "type": "address"
        },
        {
          "internalType": "uint256",
          "name": "tokenId",
          "type": "uint256"
        }
      ],
      "name": "transferFrom",
      "outputs": [],
      "stateMutability": "nonpayable",
      "type": "function"
    },
    {
      "inputs": [
        {
          "internalType": "address",
          "name": "newOwner",
          "type": "address"
        }
      ],
      "name": "transferOwnership",
      "outputs": [],
      "stateMutability": "nonpayable",
      "type": "function"
    }
  ],
  "bytecode": "0x60806040523480156200001157600080fd5b50336040518060400160405280600f81526020017f4e4654204d61726b6574706c61636500000000000000000000000000000000008152506040518060400160405280600481526020017f4e46544d00000000000000000000000000000000000000000000000000000000815250816000908162000090919062000472565b508060019081620000a2919062000472565b505050600073ffffffffffffffffffffffffffffffffffffffff168173ffffffffffffffffffffffffffffffffffffffff16036200011a5760006040517f1e4fbdf70000000000000000000000000000000000000000000000000000000081526004016200011191906200059e565b60405180910390fd5b6200012b816200013260201b60201c565b50620005bb565b6000600760009054906101000a900473ffffffffffffffffffffffffffffffffffffffff16905081600760006101000a81548173ffffffffffffffffffffffffffffffffffffffff021916908373ffffffffffffffffffffffffffffffffffffffff1602179055508173ffffffffffffffffffffffffffffffffffffffff168173ffffffffffffffffffffffffffffffffffffffff167f8be0079c531659141344cd1fd0a4f28419497f9722a3daafe3b4186f6b6457e060405160405180910390a35050565b600081519050919050565b7f4e487b7100000000000000000000000000000000000000000000000000000000600052604160045260246000fd5b7f4e487b7100000000000000000000000000000000000000000000000000000000600052602260045260246000fd5b600060028204905060018216806200027a57607f821691505b60208210810362000290576200028f62000232565b5b50919050565b60008190508160005260206000209050919050565b60006020601f8301049050919050565b600082821b905092915050565b600060088302620002fa7fffffffffffffffffffffffffffffffffffffffffffffffffffffffffffffffff82620002bb565b620003068683620002bb565b95508019841693508086168417925050509392505050565b6000819050919050565b6000819050919050565b6000620003536200034d62000347846200031e565b62000328565b6200031e565b9050919050565b6000819050919050565b6200036f8362000332565b620003876200037e826200035a565b848454620002c8565b825550505050565b600090565b6200039e6200038f565b620003ab81848462000364565b505050565b5b81811015620003d357620003c760008262000394565b600181019050620003b1565b5050565b601f8211156200042257620003ec8162000296565b620003f784620002ab565b8101602085101562000407578190505b6200041f6200041685620002ab565b830182620003b0565b50505b505050565b600082821c905092915050565b6000620004476000198460080262000427565b1980831691505092915050565b600062000462838362000434565b9150826002028217905092915050565b6200047d82620001f8565b67ffffffffffffffff81111562000499576200049862000203565b5b620004a5825462000261565b620004b2828285620003d7565b600060209050601f831160018114620004ea5760008415620004d5578287015190505b620004e1858262000454565b86555062000551565b601f198416620004fa8662000296565b60005b828110156200052457848901518255600182019150602085019450602081019050620004fd565b8683101562000544578489015162000540601f89168262000434565b8355505b6001600288020188555050505b505050505050565b600073ffffffffffffffffffffffffffffffffffffffff82169050919050565b6000620005868262000559565b9050919050565b620005988162000579565b82525050565b6000602082019050620005b560008301846200058d565b92915050565b61293b80620005cb6000396000f3fe608060405234801561001057600080fd5b50600436106101375760003560e01c806370a08231116100b8578063b76c632b1161007c578063b76c632b1461034e578063b88d4fde1461037f578063c87b56dd1461039b578063cd53d08e146103cb578063e985e9c5146103fb578063f2fde38b1461042b57610137565b806370a08231146102bc578063715018a6146102ec5780638da5cb5b146102f657806395d89b4114610314578063a22cb4651461033257610137565b806312926030116100ff578063129260301461020657806323b872dd1461023657806342842e0e14610252578063561892361461026e5780636352211e1461028c57610137565b806301ffc9a71461013c57806306fdde031461016c578063081812fc1461018a57806308598df0146101ba578063095ea7b3146101ea575b600080fd5b61015660048036038101906101519190611d14565b610447565b6040516101639190611d5c565b60405180910390f35b6101746104a8565b6040516101819190611e07565b60405180910390f35b6101a4600480360381019061019f9190611e5f565b61053a565b6040516101b19190611ecd565b60405180910390f35b6101d460048036038101906101cf9190612049565b610556565b6040516101e191906120c7565b60405180910390f35b61020460048036038101906101ff91906120e2565b610694565b005b610220600480360381019061021b9190611e5f565b6106aa565b60405161022d91906120c7565b60405180910390f35b610250600480360381019061024b9190612122565b6106c2565b005b61026c60048036038101906102679190612122565b6107c4565b005b6102766107e4565b60405161028391906120c7565b60405180910390f35b6102a660048036038101906102a19190611e5f565b6107ee565b6040516102b39190611ecd565b60405180910390f35b6102d660048036038101906102d19190612175565b610800565b6040516102e391906120c7565b60405180910390f35b6102f46108ba565b005b6102fe6108ce565b60405161030b9190611ecd565b60405180910390f35b61031c6108f8565b6040516103299190611e07565b60405180910390f35b61034c600480360381019061034791906121ce565b61098a565b005b61036860048036038101906103639190611e5f565b6109a0565b60405161037692919061220e565b60405180910390f35b610399600480360381019061039491906122d8565b6109f4565b005b6103b560048036038101906103b09190611e5f565b610a19565b6040516103c29190611e07565b60405180910390f35b6103e560048036038101906103e09190611e5f565b610b2c565b6040516103f29190611ecd565b60405180910390f35b6104156004803603810190610410919061235b565b610b5f565b6040516104229190611d5c565b60405180910390f35b61044560048036038101906104409190612175565b610bf3565b005b6000634906490660e01b7bffffffffffffffffffffffffffffffffffffffffffffffffffffffff1916827bffffffffffffffffffffffffffffffffffffffffffffffffffffffff191614806104a157506104a082610c79565b5b9050919050565b6060600080546104b7906123ca565b80601f01602080910402602001604051908101604052809291908181526020018280546104e3906123ca565b80156105305780601f1061050557610100808354040283529160200191610530565b820191906000526020600020905b81548152906001019060200180831161051357829003601f168201915b5050505050905090565b600061054582610d5b565b5061054f82610de3565b9050919050565b60006103e882111561059d576040517f08c379a000000000000000000000000000000000000000000000000000000000815260040161059490612447565b60405180910390fd5b600860008154809291906105b090612496565b9190505550600060085490506105c68582610e20565b6105d08185610f19565b336009600083815260200190815260200160002060006101000a81548173ffffffffffffffffffffffffffffffffffffffff021916908373ffffffffffffffffffffffffffffffffffffffff16021790555082600a6000838152602001908152602001600020819055503373ffffffffffffffffffffffffffffffffffffffff16817f06becd955c918828f6e985541acbf49cc842c9e9bd569fffc7698e721ef13575866040516106819190611e07565b60405180910390a3809150509392505050565b6106a682826106a1610f75565b610f7d565b5050565b600a6020528060005260406000206000915090505481565b600073ffffffffffffffffffffffffffffffffffffffff168273ffffffffffffffffffffffffffffffffffffffff16036107345760006040517f64a0ae9200000000000000000000000000000000000000000000000000000000815260040161072b9190611ecd565b60405180910390fd5b60006107488383610743610f75565b610f8f565b90508373ffffffffffffffffffffffffffffffffffffffff168173ffffffffffffffffffffffffffffffffffffffff16146107be578382826040517f64283d7b0000000000000000000000000000000000000000000000000000000081526004016107b5939291906124de565b60405180910390fd5b50505050565b6107df838383604051806020016040528060008152506109f4565b505050565b6000600854905090565b60006107f982610d5b565b9050919050565b60008073ffffffffffffffffffffffffffffffffffffffff168273ffffffffffffffffffffffffffffffffffffffff16036108735760006040517f89c62b6400000000000000000000000000000000000000000000000000000000815260040161086a9190611ecd565b60405180910390fd5b600360008373ffffffffffffffffffffffffffffffffffffffff1673ffffffffffffffffffffffffffffffffffffffff168152602001908152602001600020549050919050565b6108c26111a9565b6108cc6000611230565b565b6000600760009054906101000a900473ffffffffffffffffffffffffffffffffffffffff16905090565b606060018054610907906123ca565b80601f0160208091040260200160405190810160405280929190818152602001828054610933906123ca565b80156109805780601f1061095557610100808354040283529160200191610980565b820191906000526020600020905b81548152906001019060200180831161096357829003601f168201915b5050505050905090565b61099c610995610f75565b83836112f6565b5050565b6000806009600084815260200190815260200160002060009054906101000a900473ffffffffffffffffffffffffffffffffffffffff16600a60008581526020019081526020016000205491509150915091565b6109ff8484846106c2565b610a13610a0a610f75565b85858585611465565b50505050565b6060610a2482610d5b565b506000600660008481526020019081526020016000208054610a45906123ca565b80601f0160208091040260200160405190810160405280929190818152602001828054610a71906123ca565b8015610abe5780601f10610a9357610100808354040283529160200191610abe565b820191906000526020600020905b815481529060010190602001808311610aa157829003601f168201915b505050505090506000610acf611616565b90506000815103610ae4578192505050610b27565b600082511115610b19578082604051602001610b01929190612551565b60405160208183030381529060405292505050610b27565b610b228461162d565b925050505b919050565b60096020528060005260406000206000915054906101000a900473ffffffffffffffffffffffffffffffffffffffff1681565b6000600560008473ffffffffffffffffffffffffffffffffffffffff1673ffffffffffffffffffffffffffffffffffffffff16815260200190815260200160002060008373ffffffffffffffffffffffffffffffffffffffff1673ffffffffffffffffffffffffffffffffffffffff16815260200190815260200160002060009054906101000a900460ff16905092915050565b610bfb6111a9565b600073ffffffffffffffffffffffffffffffffffffffff168173ffffffffffffffffffffffffffffffffffffffff1603610c6d5760006040517f1e4fbdf7000000000000000000000000000000000000000000000000000000008152600401610c649190611ecd565b60405180910390fd5b610c7681611230565b50565b60007f80ac58cd000000000000000000000000000000000000000000000000000000007bffffffffffffffffffffffffffffffffffffffffffffffffffffffff1916827bffffffffffffffffffffffffffffffffffffffffffffffffffffffff19161480610d4457507f5b5e139f000000000000000000000000000000000000000000000000000000007bffffffffffffffffffffffffffffffffffffffffffffffffffffffff1916827bffffffffffffffffffffffffffffffffffffffffffffffffffffffff1916145b80610d545750610d5382611696565b5b9050919050565b600080610d6783611700565b9050600073ffffffffffffffffffffffffffffffffffffffff168173ffffffffffffffffffffffffffffffffffffffff1603610dda57826040517f7e273289000000000000000000000000000000000000000000000000000000008152600401610dd191906120c7565b60405180910390fd5b80915050919050565b60006004600083815260200190815260200160002060009054906101000a900473ffffffffffffffffffffffffffffffffffffffff169050919050565b600073ffffffffffffffffffffffffffffffffffffffff168273ffffffffffffffffffffffffffffffffffffffff1603610e925760006040517f64a0ae92000000000000000000000000000000000000000000000000000000008152600401610e899190611ecd565b60405180910390fd5b6000610ea083836000610f8f565b9050600073ffffffffffffffffffffffffffffffffffffffff168173ffffffffffffffffffffffffffffffffffffffff1614610f145760006040517f73c6ac6e000000000000000000000000000000000000000000000000000000008152600401610f0b9190611ecd565b60405180910390fd5b505050565b80600660008481526020019081526020016000209081610f399190612721565b507ff8e1a15aba9398e019f0b49df1a4fde98ee17ae345cb5f6b5e2c27f5033e8ce782604051610f6991906120c7565b60405180910390a15050565b600033905090565b610f8a838383600161173d565b505050565b600080610f9b84611700565b9050600073ffffffffffffffffffffffffffffffffffffffff168373ffffffffffffffffffffffffffffffffffffffff1614610fdd57610fdc818486611902565b5b600073ffffffffffffffffffffffffffffffffffffffff168173ffffffffffffffffffffffffffffffffffffffff161461106e5761101f60008560008061173d565b6001600360008373ffffffffffffffffffffffffffffffffffffffff1673ffffffffffffffffffffffffffffffffffffffff168152602001908152602001600020600082825403925050819055505b600073ffffffffffffffffffffffffffffffffffffffff168573ffffffffffffffffffffffffffffffffffffffff16146110f1576001600360008773ffffffffffffffffffffffffffffffffffffffff1673ffffffffffffffffffffffffffffffffffffffff168152602001908152602001600020600082825401925050819055505b846002600086815260200190815260200160002060006101000a81548173ffffffffffffffffffffffffffffffffffffffff021916908373ffffffffffffffffffffffffffffffffffffffff160217905550838573ffffffffffffffffffffffffffffffffffffffff168273ffffffffffffffffffffffffffffffffffffffff167fddf252ad1be2c89b69c2b068fc378daa952ba7f163c4a11628f55a4df523b3ef60405160405180910390a4809150509392505050565b6111b1610f75565b73ffffffffffffffffffffffffffffffffffffffff166111cf6108ce565b73ffffffffffffffffffffffffffffffffffffffff161461122e576111f2610f75565b6040517f118cdaa70000000000000000000000000000000000000000000000000000000081526004016112259190611ecd565b60405180910390fd5b565b6000600760009054906101000a900473ffffffffffffffffffffffffffffffffffffffff16905081600760006101000a81548173ffffffffffffffffffffffffffffffffffffffff021916908373ffffffffffffffffffffffffffffffffffffffff1602179055508173ffffffffffffffffffffffffffffffffffffffff168173ffffffffffffffffffffffffffffffffffffffff167f8be0079c531659141344cd1fd0a4f28419497f9722a3daafe3b4186f6b6457e060405160405180910390a35050565b600073ffffffffffffffffffffffffffffffffffffffff168273ffffffffffffffffffffffffffffffffffffffff160361136757816040517f5b08ba1800000000000000000000000000000000000000000000000000000000815260040161135e9190611ecd565b60405180910390fd5b80600560008573ffffffffffffffffffffffffffffffffffffffff1673ffffffffffffffffffffffffffffffffffffffff16815260200190815260200160002060008473ffffffffffffffffffffffffffffffffffffffff1673ffffffffffffffffffffffffffffffffffffffff16815260200190815260200160002060006101000a81548160ff0219169083151502179055508173ffffffffffffffffffffffffffffffffffffffff168373ffffffffffffffffffffffffffffffffffffffff167f17307eab39ab6107e8899845ad3d59bd9653f200f220920489ca2b5937696c31836040516114589190611d5c565b60405180910390a3505050565b60008373ffffffffffffffffffffffffffffffffffffffff163b111561160f578273ffffffffffffffffffffffffffffffffffffffff1663150b7a02868685856040518563ffffffff1660e01b81526004016114c49493929190612848565b6020604051808303816000875af192505050801561150057506040513d601f19601f820116820180604052508101906114fd91906128a9565b60015b611584573d8060008114611530576040519150601f19603f3d011682016040523d82523d6000602084013e611535565b606091505b50600081510361157c57836040517f64a0ae920000000000000000000000000000000000000000000000000000000081526004016115739190611ecd565b60405180910390fd5b805160208201fd5b63150b7a0260e01b7bffffffffffffffffffffffffffffffffffffffffffffffffffffffff1916817bffffffffffffffffffffffffffffffffffffffffffffffffffffffff19161461160d57836040517f64a0ae920000000000000000000000000000000000000000000000000000000081526004016116049190611ecd565b60405180910390fd5b505b5050505050565b606060405180602001604052806000815250905090565b606061163882610d5b565b506000611643611616565b90506000815111611663576040518060200160405280600081525061168e565b8061166d846119c6565b60405160200161167e929190612551565b6040516020818303038152906040525b915050919050565b60007f01ffc9a7000000000000000000000000000000000000000000000000000000007bffffffffffffffffffffffffffffffffffffffffffffffffffffffff1916827bffffffffffffffffffffffffffffffffffffffffffffffffffffffff1916149050919050565b60006002600083815260200190815260200160002060009054906101000a900473ffffffffffffffffffffffffffffffffffffffff169050919050565b80806117765750600073ffffffffffffffffffffffffffffffffffffffff168273ffffffffffffffffffffffffffffffffffffffff1614155b156118aa57600061178684610d5b565b9050600073ffffffffffffffffffffffffffffffffffffffff168373ffffffffffffffffffffffffffffffffffffffff16141580156117f157508273ffffffffffffffffffffffffffffffffffffffff168173ffffffffffffffffffffffffffffffffffffffff1614155b801561180457506118028184610b5f565b155b1561184657826040517fa9fbf51f00000000000000000000000000000000000000000000000000000000815260040161183d9190611ecd565b60405180910390fd5b81156118a857838573ffffffffffffffffffffffffffffffffffffffff168273ffffffffffffffffffffffffffffffffffffffff167f8c5be1e5ebec7d5bd14f71427d1e84f3dd0314c0f7b2291e5b200ac8c7c3b92560405160405180910390a45b505b836004600085815260200190815260200160002060006101000a81548173ffffffffffffffffffffffffffffffffffffffff021916908373ffffffffffffffffffffffffffffffffffffffff16021790555050505050565b61190d838383611a94565b6119c157600073ffffffffffffffffffffffffffffffffffffffff168373ffffffffffffffffffffffffffffffffffffffff160361198257806040517f7e27328900000000000000000000000000000000000000000000000000000000815260040161197991906120c7565b60405180910390fd5b81816040517f177e802f0000000000000000000000000000000000000000000000000000000081526004016119b892919061220e565b60405180910390fd5b505050565b6060600060016119d584611b55565b01905060008167ffffffffffffffff8111156119f4576119f3611f1e565b5b6040519080825280601f01601f191660200182016040528015611a265781602001600182028036833780820191505090505b509050600082602083010190505b600115611a89578080600190039150507f3031323334353637383961626364656600000000000000000000000000000000600a86061a8153600a8581611a7d57611a7c6128d6565b5b04945060008503611a34575b819350505050919050565b60008073ffffffffffffffffffffffffffffffffffffffff168373ffffffffffffffffffffffffffffffffffffffff1614158015611b4c57508273ffffffffffffffffffffffffffffffffffffffff168473ffffffffffffffffffffffffffffffffffffffff161480611b0d5750611b0c8484610b5f565b5b80611b4b57508273ffffffffffffffffffffffffffffffffffffffff16611b3383610de3565b73ffffffffffffffffffffffffffffffffffffffff16145b5b90509392505050565b600080600090507a184f03e93ff9f4daa797ed6e38ed64bf6a1f0100000000000000008310611bb3577a184f03e93ff9f4daa797ed6e38ed64bf6a1f0100000000000000008381611ba957611ba86128d6565b5b0492506040810190505b6d04ee2d6d415b85acef81000000008310611bf0576d04ee2d6d415b85acef81000000008381611be657611be56128d6565b5b0492506020810190505b662386f26fc100008310611c1f57662386f26fc100008381611c1557611c146128d6565b5b0492506010810190505b6305f5e1008310611c48576305f5e1008381611c3e57611c3d6128d6565b5b0492506008810190505b6127108310611c6d576127108381611c6357611c626128d6565b5b0492506004810190505b60648310611c905760648381611c8657611c856128d6565b5b0492506002810190505b600a8310611c9f576001810190505b80915050919050565b6000604051905090565b600080fd5b600080fd5b60007fffffffff0000000000000000000000000000000000000000000000000000000082169050919050565b611cf181611cbc565b8114611cfc57600080fd5b50565b600081359050611d0e81611ce8565b92915050565b600060208284031215611d2a57611d29611cb2565b5b6000611d3884828501611cff565b91505092915050565b60008115159050919050565b611d5681611d41565b82525050565b6000602082019050611d716000830184611d4d565b92915050565b600081519050919050565b600082825260208201905092915050565b60005b83811015611db1578082015181840152602081019050611d96565b60008484015250505050565b6000601f19601f8301169050919050565b6000611dd982611d77565b611de38185611d82565b9350611df3818560208601611d93565b611dfc81611dbd565b840191505092915050565b60006020820190508181036000830152611e218184611dce565b905092915050565b6000819050919050565b611e3c81611e29565b8114611e4757600080fd5b50565b600081359050611e5981611e33565b92915050565b600060208284031215611e7557611e74611cb2565b5b6000611e8384828501611e4a565b91505092915050565b600073ffffffffffffffffffffffffffffffffffffffff82169050919050565b6000611eb782611e8c565b9050919050565b611ec781611eac565b82525050565b6000602082019050611ee26000830184611ebe565b92915050565b611ef181611eac565b8114611efc57600080fd5b50565b600081359050611f0e81611ee8565b92915050565b600080fd5b600080fd5b7f4e487b7100000000000000000000000000000000000000000000000000000000600052604160045260246000fd5b611f5682611dbd565b810181811067ffffffffffffffff82111715611f7557611f74611f1e565b5b80604052505050565b6000611f88611ca8565b9050611f948282611f4d565b919050565b600067ffffffffffffffff821115611fb457611fb3611f1e565b5b611fbd82611dbd565b9050602081019050919050565b82818337600083830152505050565b6000611fec611fe784611f99565b611f7e565b90508281526020810184848401111561200857612007611f19565b5b612013848285611fca565b509392505050565b600082601f8301126120305761202f611f14565b5b8135612040848260208601611fd9565b91505092915050565b60008060006060848603121561206257612061611cb2565b5b600061207086828701611eff565b935050602084013567ffffffffffffffff81111561209157612090611cb7565b5b61209d8682870161201b565b92505060406120ae86828701611e4a565b9150509250925092565b6120c181611e29565b82525050565b60006020820190506120dc60008301846120b8565b92915050565b600080604083850312156120f9576120f8611cb2565b5b600061210785828601611eff565b925050602061211885828601611e4a565b9150509250929050565b60008060006060848603121561213b5761213a611cb2565b5b600061214986828701611eff565b935050602061215a86828701611eff565b925050604061216b86828701611e4a565b9150509250925092565b60006020828403121561218b5761218a611cb2565b5b600061219984828501611eff565b91505092915050565b6121ab81611d41565b81146121b657600080fd5b50565b6000813590506121c8816121a2565b92915050565b600080604083850312156121e5576121e4611cb2565b5b60006121f385828601611eff565b9250506020612204858286016121b9565b9150509250929050565b60006040820190506122236000830185611ebe565b61223060208301846120b8565b9392505050565b600067ffffffffffffffff82111561225257612251611f1e565b5b61225b82611dbd565b9050602081019050919050565b600061227b61227684612237565b611f7e565b90508281526020810184848401111561229757612296611f19565b5b6122a2848285611fca565b509392505050565b600082601f8301126122bf576122be611f14565b5b81356122cf848260208601612268565b91505092915050565b600080600080608085870312156122f2576122f1611cb2565b5b600061230087828801611eff565b945050602061231187828801611eff565b935050604061232287828801611e4a565b925050606085013567ffffffffffffffff81111561234357612342611cb7565b5b61234f878288016122aa565b91505092959194509250565b6000806040838503121561237257612371611cb2565b5b600061238085828601611eff565b925050602061239185828601611eff565b9150509250929050565b7f4e487b7100000000000000000000000000000000000000000000000000000000600052602260045260246000fd5b600060028204905060018216806123e257607f821691505b6020821081036123f5576123f461239b565b5b50919050565b7f526f79616c747920746f6f206869676800000000000000000000000000000000600082015250565b6000612431601083611d82565b915061243c826123fb565b602082019050919050565b6000602082019050818103600083015261246081612424565b9050919050565b7f4e487b7100000000000000000000000000000000000000000000000000000000600052601160045260246000fd5b60006124a182611e29565b91507fffffffffffffffffffffffffffffffffffffffffffffffffffffffffffffffff82036124d3576124d2612467565b5b600182019050919050565b60006060820190506124f36000830186611ebe565b61250060208301856120b8565b61250d6040830184611ebe565b949350505050565b600081905092915050565b600061252b82611d77565b6125358185612515565b9350612545818560208601611d93565b80840191505092915050565b600061255d8285612520565b91506125698284612520565b91508190509392505050565b60008190508160005260206000209050919050565b60006020601f8301049050919050565b600082821b905092915050565b6000600883026125d77fffffffffffffffffffffffffffffffffffffffffffffffffffffffffffffffff8261259a565b6125e1868361259a565b95508019841693508086168417925050509392505050565b6000819050919050565b600061261e61261961261484611e29565b6125f9565b611e29565b9050919050565b6000819050919050565b61263883612603565b61264c61264482612625565b8484546125a7565b825550505050565b600090565b612661612654565b61266c81848461262f565b505050565b5b8181101561269057612685600082612659565b600181019050612672565b5050565b601f8211156126d5576126a681612575565b6126af8461258a565b810160208510156126be578190505b6126d26126ca8561258a565b830182612671565b50505b505050565b600082821c905092915050565b60006126f8600019846008026126da565b1980831691505092915050565b600061271183836126e7565b9150826002028217905092915050565b61272a82611d77565b67ffffffffffffffff81111561274357612742611f1e565b5b61274d82546123ca565b612758828285612694565b600060209050601f83116001811461278b5760008415612779578287015190505b6127838582612705565b8655506127eb565b601f19841661279986612575565b60005b828110156127c15784890151825560018201915060208501945060208101905061279c565b868310156127de57848901516127da601f8916826126e7565b8355505b6001600288020188555050505b505050505050565b600081519050919050565b600082825260208201905092915050565b600061281a826127f3565b61282481856127fe565b9350612834818560208601611d93565b61283d81611dbd565b840191505092915050565b600060808201905061285d6000830187611ebe565b61286a6020830186611ebe565b61287760408301856120b8565b8181036060830152612889818461280f565b905095945050505050565b6000815190506128a381611ce8565b92915050565b6000602082840312156128bf576128be611cb2565b5b60006128cd84828501612894565b91505092915050565b7f4e487b7100000000000000000000000000000000000000000000000000000000600052601260045260246000fdfea26469706673582212208c4fec11d124c47a2fa0c4bd31832356d48c4a595cf03fc9fe37fa088e556f1264736f6c63430008140033",
  "linkReferences": {},
  "deployedLinkReferences": {}
}