{
  "_format": "hh-sol-artifact-1",
  "contractName": "NFTMarketplace",
  "sourceName": "contracts/NFTMarketplace.sol",
  "abi": [
    {
      "inputs": [],
      "stateMutability": "nonpayable",
      "type": "constructor"
    },
    {
      "inputs": [
        {
          "internalType": "address",
          "name": "owner",
          "type": "address"
        }
      ],
      "name": "OwnableInvalidOwner",
      "type": "error"
    },
    {
      "inputs": [
        {
          "internalType": "address",
          "name": "account",
          "type": "address"
        }
      ],
      "name": "OwnableUnauthorizedAccount",
      "type": "error"
    },
    {
      "inputs": [],
      "name": "ReentrancyGuardReentrantCall",
      "type": "error"
    },
    {
      "anonymous": false,
      "inputs": [
        {
          "indexed": true,
          "internalType": "uint256",
          "name": "listingId",
          "type": "uint256"
        },
        {
          "indexed": false,
          "internalType": "address",
          "name": "winner",
          "type": "address"
        },
        {
          "indexed": false,
          "internalType": "uint256",
          "name": "amount",
          "type": "uint256"
        }
      ],
      "name": "AuctionEnded",
      "type": "event"
    },
    {
      "anonymous": false,
      "inputs": [
        {
          "indexed": true,
          "internalType": "uint256",
          "name": "listingId",
          "type": "uint256"
        },
        {
          "indexed": false,
          "internalType": "address",
          "name": "bidder",
          "type": "address"
        },
        {
          "indexed": false,
          "internalType": "uint256",
          "name": "amount",
          "type": "uint256"
        }
      ],
      "name": "BidPlaced",
      "type": "event"
    },
    {
      "anonymous": false,
      "inputs": [
        {
          "indexed": true,
          "internalType": "uint256",
          "name": "listingId",
          "type": "uint256"
        },
        {
          "indexed": true,
          "internalType": "address",
          "name": "nftContract",
          "type": "address"
        },
        {
          "indexed": true,
          "internalType": "uint256",
          "name": "tokenId",
          "type": "uint256"
        },
        {
          "indexed": false,
          "internalType": "uint256",
          "name": "price",
          "type": "uint256"
        }
      ],
      "name": "ItemListed",
      "type": "event"
    },
    {
      "anonymous": false,
      "inputs": [
        {
          "indexed": true,
          "internalType": "uint256",
          "name": "listingId",
          "type": "uint256"
        },
        {
          "indexed": false,
          "internalType": "address",
          "name": "buyer",
          "type": "address"
        },
        {
          "indexed": false,
          "internalType": "uint256",
          "name": "price",
          "type": "uint256"
        }
      ],
      "name": "ItemSold",
      "type": "event"
    },
    {
      "anonymous": false,
      "inputs": [
        {
          "indexed": true,
          "internalType": "address",
          "name": "previousOwner",
          "type": "address"
        },
        {
          "indexed": true,
          "internalType": "address",
          "name": "newOwner",
          "type": "address"
        }
      ],
      "name": "OwnershipTransferred",
      "type": "event"
    },
    {
      "inputs": [
        {
          "internalType": "uint256",
          "name": "listingId",
          "type": "uint256"
        }
      ],
      "name": "buyItem",
      "outputs": [],
      "stateMutability": "payable",
      "type": "function"
    },
    {
      "inputs": [
        {
          "internalType": "uint256",
          "name": "listingId",
          "type": "uint256"
        }
      ],
      "name": "cancelListing",
      "outputs": [],
      "stateMutability": "nonpayable",
      "type": "function"
    },
    {
      "inputs": [
        {
          "internalType": "uint256",
          "name": "listingId",
          "type": "uint256"
        }
      ],
      "name": "endAuction",
      "outputs": [],
      "stateMutability": "nonpayable",
      "type": "function"
    },
    {
      "inputs": [
        {
          "internalType": "uint256",
          "name": "listingId",
          "type": "uint256"
        }
      ],
      "name": "getActiveListing",
      "outputs": [
        {
          "components": [
            {
              "internalType": "uint256",
              "name": "tokenId",
              "type": "uint256"
            },
            {
              "internalType": "address",
              "name": "nftContract",
              "type": "address"
            },
            {
              "internalType": "address",
              "name": "seller",
              "type": "address"
            },
            {
              "internalType": "uint256",
              "name": "price",
              "type": "uint256"
            },
            {
              "internalType": "bool",
              "name": "active",
              "type": "bool"
            },
            {
              "internalType": "bool",
              "name": "isAuction",
              "type": "bool"
            },
            {
              "internalType": "uint256",
              "name": "auctionEndTime",
              "type": "uint256"
            },
            {
              "internalType": "address",
              "name": "highestBidder",
              "type": "address"
            },
            {
              "internalType": "uint256",
              "name": "highestBid",
              "type": "uint256"
            }
          ],
          "internalType": "struct NFTMarketplace.Listing",
          "name": "",
          "type": "tuple"
        }
      ],
      "stateMutability": "view",
      "type": "function"
    },
    {
      "inputs": [
        {
          "internalType": "address",
          "name": "nftContract",
          "type": "address"
        },
        {
          "internalType": "uint256",
          "name": "tokenId",
          "type": "uint256"
        },
        {
          "internalType": "uint256",
          "name": "price",
          "type": "uint256"
        },
        {
          "internalType": "bool",
          "name": "isAuction",
          "type": "bool"
        },
        {
          "internalType": "uint256",
          "name": "auctionDuration",
          "type": "uint256"
        }
      ],
      "name": "listItem",
      "outputs": [],
      "stateMutability": "nonpayable",
      "type": "function"
    },
    {
      "inputs": [],
      "name": "listingCounter",
      "outputs": [
        {
          "internalType": "uint256",
          "name": "",
          "type": "uint256"
        }
      ],
      "stateMutability": "view",
      "type": "function"
    },
    {
      "inputs": [
        {
          "internalType": "uint256",
          "name": "",
          "type": "uint256"
        }
      ],
      "name": "listings",
      "outputs": [
        {
          "internalType": "uint256",
          "name": "tokenId",
          "type": "uint256"
        },
        {
          "internalType": "address",
          "name": "nftContract",
          "type": "address"
        },
        {
          "internalType": "address",
          "name": "seller",
          "type": "address"
        },
        {
          "internalType": "uint256",
          "name": "price",
          "type": "uint256"
        },
        {
          "internalType": "bool",
          "name": "active",
          "type": "bool"
        },
        {
          "internalType": "bool",
          "name": "isAuction",
          "type": "bool"
        },
        {
          "internalType": "uint256",
          "name": "auctionEndTime",
          "type": "uint256"
        },
        {
          "internalType": "address",
          "name": "highestBidder",
          "type": "address"
        },
        {
          "internalType": "uint256",
          "name": "highestBid",
          "type": "uint256"
        }
      ],
      "stateMutability": "view",
      "type": "function"
    },
    {
      "inputs": [],
      "name": "marketplaceFee",
      "outputs": [
        {
          "internalType": "uint256",
          "name": "",
          "type": "uint256"
        }
      ],
      "stateMutability": "view",
      "type": "function"
    },
    {
      "inputs": [],
      "name": "owner",
      "outputs": [
        {
          "internalType": "address",
          "name": "",
          "type": "address"
        }
      ],
      "stateMutability": "view",
      "type": "function"
    },
    {
      "inputs": [
        {
          "internalType": "uint256",
          "name": "listingId",
          "type": "uint256"
        }
      ],
      "name": "placeBid",
      "outputs": [],
      "stateMutability": "payable",
      "type": "function"
    },
    {
      "inputs": [],
      "name": "renounceOwnership",
      "outputs": [],
      "stateMutability": "nonpayable",
      "type": "function"
    },
    {
      "inputs": [
        {
          "internalType": "uint256",
          "name": "_fee",
          "type": "uint256"
        }
      ],
      "name": "setMarketplaceFee",
      "outputs": [],
      "stateMutability": "nonpayable",
      "type": "function"
    },
    {
      "inputs": [
        {
          "internalType": "address",
          "name": "",
          "type": "address"
        },
        {
          "internalType": "uint256",
          "name": "",
          "type": "uint256"
        }
      ],
      "name": "tokenToListingId",
      "outputs": [
        {
          "internalType": "uint256",
          "name": "",
          "type": "uint256"
        }
      ],
      "stateMutability": "view",
      "type": "function"
    },
    {
      "inputs": [
        {
          "internalType": "address",
          "name": "newOwner",
          "type": "address"
        }
      ],
      "name": "transferOwnership",
      "outputs": [],
      "stateMutability": "nonpayable",
      "type": "function"
    },
    {
      "inputs": [],
      "name": "withdrawFees",
      "outputs": [],
      "stateMutability": "nonpayable",
      "type": "function"
    }
  ],
  "bytecode": "0x608060405260fa6005553480156200001657600080fd5b50336001600081905550600073ffffffffffffffffffffffffffffffffffffffff168173ffffffffffffffffffffffffffffffffffffffff1603620000955760006040517f1e4fbdf70000000000000000000000000000000000000000000000000000000081526004016200008c9190620001b8565b60405180910390fd5b620000a681620000ad60201b60201c565b50620001d5565b6000600160009054906101000a900473ffffffffffffffffffffffffffffffffffffffff16905081600160006101000a81548173ffffffffffffffffffffffffffffffffffffffff021916908373ffffffffffffffffffffffffffffffffffffffff1602179055508173ffffffffffffffffffffffffffffffffffffffff168173ffffffffffffffffffffffffffffffffffffffff167f8be0079c531659141344cd1fd0a4f28419497f9722a3daafe3b4186f6b6457e060405160405180910390a35050565b600073ffffffffffffffffffffffffffffffffffffffff82169050919050565b6000620001a08262000173565b9050919050565b620001b28162000193565b82525050565b6000602082019050620001cf6000830184620001a7565b92915050565b6127cc80620001e56000396000f3fe6080604052600436106100e85760003560e01c80638da5cb5b1161008a578063b9a2de3a11610059578063b9a2de3a146102ad578063de74e57b146102d6578063e7fb74c71461031b578063f2fde38b14610337576100e8565b80638da5cb5b146102145780639407ea981461023f5780639979ef4514610268578063a0551f6414610284576100e8565b80636a166964116100c65780636a1669641461016a5780636c2c9c7d14610195578063715018a6146101c05780637c5180be146101d7576100e8565b80631030f05f146100ed578063305a67a81461012a578063476343ee14610153575b600080fd5b3480156100f957600080fd5b50610114600480360381019061010f9190611b74565b610360565b6040516101219190611cc3565b60405180910390f35b34801561013657600080fd5b50610151600480360381019061014c9190611b74565b610551565b005b34801561015f57600080fd5b5061016861078d565b005b34801561017657600080fd5b5061017f6107e5565b60405161018c9190611cee565b60405180910390f35b3480156101a157600080fd5b506101aa6107eb565b6040516101b79190611cee565b60405180910390f35b3480156101cc57600080fd5b506101d56107f1565b005b3480156101e357600080fd5b506101fe60048036038101906101f99190611d35565b610805565b60405161020b9190611cee565b60405180910390f35b34801561022057600080fd5b5061022961082a565b6040516102369190611d84565b60405180910390f35b34801561024b57600080fd5b5061026660048036038101906102619190611b74565b610854565b005b610282600480360381019061027d9190611b74565b6108ab565b005b34801561029057600080fd5b506102ab60048036038101906102a69190611dcb565b610be4565b005b3480156102b957600080fd5b506102d460048036038101906102cf9190611b74565b61108e565b005b3480156102e257600080fd5b506102fd60048036038101906102f89190611b74565b61145f565b60405161031299989796959493929190611e55565b60405180910390f35b61033560048036038101906103309190611b74565b611527565b005b34801561034357600080fd5b5061035e60048036038101906103599190611ee2565b61187c565b005b610368611aa7565b6002600083815260200190815260200160002060040160009054906101000a900460ff166103cb576040517f08c379a00000000000000000000000000000000000000000000000000000000081526004016103c290611f6c565b60405180910390fd5b6002600083815260200190815260200160002060405180610120016040529081600082015481526020016001820160009054906101000a900473ffffffffffffffffffffffffffffffffffffffff1673ffffffffffffffffffffffffffffffffffffffff1673ffffffffffffffffffffffffffffffffffffffff1681526020016002820160009054906101000a900473ffffffffffffffffffffffffffffffffffffffff1673ffffffffffffffffffffffffffffffffffffffff1673ffffffffffffffffffffffffffffffffffffffff168152602001600382015481526020016004820160009054906101000a900460ff161515151581526020016004820160019054906101000a900460ff16151515158152602001600582015481526020016006820160009054906101000a900473ffffffffffffffffffffffffffffffffffffffff1673ffffffffffffffffffffffffffffffffffffffff1673ffffffffffffffffffffffffffffffffffffffff1681526020016007820154815250509050919050565b60006002600083815260200190815260200160002090508060040160009054906101000a900460ff166105b9576040517f08c379a00000000000000000000000000000000000000000000000000000000081526004016105b090611f6c565b60405180910390fd5b8060020160009054906101000a900473ffffffffffffffffffffffffffffffffffffffff1673ffffffffffffffffffffffffffffffffffffffff163373ffffffffffffffffffffffffffffffffffffffff161480610649575061061a61082a565b73ffffffffffffffffffffffffffffffffffffffff163373ffffffffffffffffffffffffffffffffffffffff16145b610688576040517f08c379a000000000000000000000000000000000000000000000000000000000815260040161067f90611fd8565b60405180910390fd5b8060040160019054906101000a900460ff1680156106f75750600073ffffffffffffffffffffffffffffffffffffffff168160060160009054906101000a900473ffffffffffffffffffffffffffffffffffffffff1673ffffffffffffffffffffffffffffffffffffffff1614155b1561076c578060060160009054906101000a900473ffffffffffffffffffffffffffffffffffffffff1673ffffffffffffffffffffffffffffffffffffffff166108fc82600701549081150290604051600060405180830381858888f1935050505015801561076a573d6000803e3d6000fd5b505b60008160040160006101000a81548160ff0219169083151502179055505050565b610795611902565b61079d61082a565b73ffffffffffffffffffffffffffffffffffffffff166108fc479081150290604051600060405180830381858888f193505050501580156107e2573d6000803e3d6000fd5b50565b60055481565b60045481565b6107f9611902565b6108036000611989565b565b6003602052816000526040600020602052806000526040600020600091509150505481565b6000600160009054906101000a900473ffffffffffffffffffffffffffffffffffffffff16905090565b61085c611902565b6103e88111156108a1576040517f08c379a000000000000000000000000000000000000000000000000000000000815260040161089890612044565b60405180910390fd5b8060058190555050565b6108b3611a4f565b60006002600083815260200190815260200160002090508060040160009054906101000a900460ff1661091b576040517f08c379a000000000000000000000000000000000000000000000000000000000815260040161091290611f6c565b60405180910390fd5b8060040160019054906101000a900460ff1661096c576040517f08c379a0000000000000000000000000000000000000000000000000000000008152600401610963906120b0565b60405180910390fd5b806005015442106109b2576040517f08c379a00000000000000000000000000000000000000000000000000000000081526004016109a99061211c565b60405180910390fd5b806007015434116109f8576040517f08c379a00000000000000000000000000000000000000000000000000000000081526004016109ef90612188565b60405180910390fd5b8060020160009054906101000a900473ffffffffffffffffffffffffffffffffffffffff1673ffffffffffffffffffffffffffffffffffffffff163373ffffffffffffffffffffffffffffffffffffffff1603610a8a576040517f08c379a0000000000000000000000000000000000000000000000000000000008152600401610a81906121f4565b60405180910390fd5b600073ffffffffffffffffffffffffffffffffffffffff168160060160009054906101000a900473ffffffffffffffffffffffffffffffffffffffff1673ffffffffffffffffffffffffffffffffffffffff1614610b52578060060160009054906101000a900473ffffffffffffffffffffffffffffffffffffffff1673ffffffffffffffffffffffffffffffffffffffff166108fc82600701549081150290604051600060405180830381858888f19350505050158015610b50573d6000803e3d6000fd5b505b338160060160006101000a81548173ffffffffffffffffffffffffffffffffffffffff021916908373ffffffffffffffffffffffffffffffffffffffff160217905550348160070181905550817f0e54eff26401bf69b81b26f60bd85ef47f5d85275c1d268d84f68d6897431c473334604051610bd0929190612214565b60405180910390a250610be1611a95565b50565b60008590503373ffffffffffffffffffffffffffffffffffffffff168173ffffffffffffffffffffffffffffffffffffffff16636352211e876040518263ffffffff1660e01b8152600401610c399190611cee565b602060405180830381865afa158015610c56573d6000803e3d6000fd5b505050506040513d601f19601f82011682018060405250810190610c7a9190612252565b73ffffffffffffffffffffffffffffffffffffffff1614610cd0576040517f08c379a0000000000000000000000000000000000000000000000000000000008152600401610cc7906122cb565b60405180910390fd5b8073ffffffffffffffffffffffffffffffffffffffff1663e985e9c533306040518363ffffffff1660e01b8152600401610d0b9291906122eb565b602060405180830381865afa158015610d28573d6000803e3d6000fd5b505050506040513d601f19601f82011682018060405250810190610d4c9190612329565b610d8b576040517f08c379a0000000000000000000000000000000000000000000000000000000008152600401610d82906123a2565b60405180910390fd5b60008411610dce576040517f08c379a0000000000000000000000000000000000000000000000000000000008152600401610dc59061240e565b60405180910390fd5b60046000815480929190610de19061245d565b91905055506040518061012001604052808681526020018773ffffffffffffffffffffffffffffffffffffffff1681526020013373ffffffffffffffffffffffffffffffffffffffff168152602001858152602001600115158152602001841515815260200184610e53576000610e60565b8342610e5f91906124a5565b5b8152602001600073ffffffffffffffffffffffffffffffffffffffff16815260200160008152506002600060045481526020019081526020016000206000820151816000015560208201518160010160006101000a81548173ffffffffffffffffffffffffffffffffffffffff021916908373ffffffffffffffffffffffffffffffffffffffff16021790555060408201518160020160006101000a81548173ffffffffffffffffffffffffffffffffffffffff021916908373ffffffffffffffffffffffffffffffffffffffff1602179055506060820151816003015560808201518160040160006101000a81548160ff02191690831515021790555060a08201518160040160016101000a81548160ff02191690831515021790555060c0820151816005015560e08201518160060160006101000a81548173ffffffffffffffffffffffffffffffffffffffff021916908373ffffffffffffffffffffffffffffffffffffffff1602179055506101008201518160070155905050600454600360008873ffffffffffffffffffffffffffffffffffffffff1673ffffffffffffffffffffffffffffffffffffffff168152602001908152602001600020600087815260200190815260200160002081905550848673ffffffffffffffffffffffffffffffffffffffff166004547fb7070c3c377d2fb697e5ddc72b0283eb751116d682ff1cdb579eab77bcc4013b8760405161107e9190611cee565b60405180910390a4505050505050565b611096611a4f565b60006002600083815260200190815260200160002090508060040160009054906101000a900460ff166110fe576040517f08c379a00000000000000000000000000000000000000000000000000000000081526004016110f590611f6c565b60405180910390fd5b8060040160019054906101000a900460ff1661114f576040517f08c379a0000000000000000000000000000000000000000000000000000000008152600401611146906120b0565b60405180910390fd5b8060050154421015611196576040517f08c379a000000000000000000000000000000000000000000000000000000000815260040161118d90612525565b60405180910390fd5b60008160040160006101000a81548160ff021916908315150217905550600073ffffffffffffffffffffffffffffffffffffffff168160060160009054906101000a900473ffffffffffffffffffffffffffffffffffffffff1673ffffffffffffffffffffffffffffffffffffffff16146113f157600061271060055483600701546112229190612545565b61122c91906125b6565b9050600081836007015461124091906125e7565b90508260010160009054906101000a900473ffffffffffffffffffffffffffffffffffffffff1673ffffffffffffffffffffffffffffffffffffffff166342842e0e8460020160009054906101000a900473ffffffffffffffffffffffffffffffffffffffff168560060160009054906101000a900473ffffffffffffffffffffffffffffffffffffffff1686600001546040518463ffffffff1660e01b81526004016112ef9392919061261b565b600060405180830381600087803b15801561130957600080fd5b505af115801561131d573d6000803e3d6000fd5b505050508260020160009054906101000a900473ffffffffffffffffffffffffffffffffffffffff1673ffffffffffffffffffffffffffffffffffffffff166108fc829081150290604051600060405180830381858888f1935050505015801561138b573d6000803e3d6000fd5b50837fa574c741071bb18f51fa88c17aeefec514bebf670ca22a3736fba6504ecbb7638460060160009054906101000a900473ffffffffffffffffffffffffffffffffffffffff1685600701546040516113e6929190612214565b60405180910390a250505b817fd2aa34a4fdbbc6dff6a3e56f46e0f3ae2a31d7785ff3487aa5c95c642acea5018260060160009054906101000a900473ffffffffffffffffffffffffffffffffffffffff16836007015460405161144b929190612214565b60405180910390a25061145c611a95565b50565b60026020528060005260406000206000915090508060000154908060010160009054906101000a900473ffffffffffffffffffffffffffffffffffffffff16908060020160009054906101000a900473ffffffffffffffffffffffffffffffffffffffff16908060030154908060040160009054906101000a900460ff16908060040160019054906101000a900460ff16908060050154908060060160009054906101000a900473ffffffffffffffffffffffffffffffffffffffff16908060070154905089565b61152f611a4f565b60006002600083815260200190815260200160002090508060040160009054906101000a900460ff16611597576040517f08c379a000000000000000000000000000000000000000000000000000000000815260040161158e90611f6c565b60405180910390fd5b8060040160019054906101000a900460ff16156115e9576040517f08c379a00000000000000000000000000000000000000000000000000000000081526004016115e09061269e565b60405180910390fd5b8060030154341015611630576040517f08c379a00000000000000000000000000000000000000000000000000000000081526004016116279061270a565b60405180910390fd5b8060020160009054906101000a900473ffffffffffffffffffffffffffffffffffffffff1673ffffffffffffffffffffffffffffffffffffffff163373ffffffffffffffffffffffffffffffffffffffff16036116c2576040517f08c379a00000000000000000000000000000000000000000000000000000000081526004016116b990612776565b60405180910390fd5b60008160040160006101000a81548160ff0219169083151502179055506000612710600554346116f29190612545565b6116fc91906125b6565b90506000813461170c91906125e7565b90508260010160009054906101000a900473ffffffffffffffffffffffffffffffffffffffff1673ffffffffffffffffffffffffffffffffffffffff166342842e0e8460020160009054906101000a900473ffffffffffffffffffffffffffffffffffffffff163386600001546040518463ffffffff1660e01b81526004016117979392919061261b565b600060405180830381600087803b1580156117b157600080fd5b505af11580156117c5573d6000803e3d6000fd5b505050508260020160009054906101000a900473ffffffffffffffffffffffffffffffffffffffff1673ffffffffffffffffffffffffffffffffffffffff166108fc829081150290604051600060405180830381858888f19350505050158015611833573d6000803e3d6000fd5b50837fa574c741071bb18f51fa88c17aeefec514bebf670ca22a3736fba6504ecbb7633334604051611866929190612214565b60405180910390a2505050611879611a95565b50565b611884611902565b600073ffffffffffffffffffffffffffffffffffffffff168173ffffffffffffffffffffffffffffffffffffffff16036118f65760006040517f1e4fbdf70000000000000000000000000000000000000000000000000000000081526004016118ed9190611d84565b60405180910390fd5b6118ff81611989565b50565b61190a611a9f565b73ffffffffffffffffffffffffffffffffffffffff1661192861082a565b73ffffffffffffffffffffffffffffffffffffffff16146119875761194b611a9f565b6040517f118cdaa700000000000000000000000000000000000000000000000000000000815260040161197e9190611d84565b60405180910390fd5b565b6000600160009054906101000a900473ffffffffffffffffffffffffffffffffffffffff16905081600160006101000a81548173ffffffffffffffffffffffffffffffffffffffff021916908373ffffffffffffffffffffffffffffffffffffffff1602179055508173ffffffffffffffffffffffffffffffffffffffff168173ffffffffffffffffffffffffffffffffffffffff167f8be0079c531659141344cd1fd0a4f28419497f9722a3daafe3b4186f6b6457e060405160405180910390a35050565b600260005403611a8b576040517f3ee5aeb500000000000000000000000000000000000000000000000000000000815260040160405180910390fd5b6002600081905550565b6001600081905550565b600033905090565b60405180610120016040528060008152602001600073ffffffffffffffffffffffffffffffffffffffff168152602001600073ffffffffffffffffffffffffffffffffffffffff1681526020016000815260200160001515815260200160001515815260200160008152602001600073ffffffffffffffffffffffffffffffffffffffff168152602001600081525090565b600080fd5b6000819050919050565b611b5181611b3e565b8114611b5c57600080fd5b50565b600081359050611b6e81611b48565b92915050565b600060208284031215611b8a57611b89611b39565b5b6000611b9884828501611b5f565b91505092915050565b611baa81611b3e565b82525050565b600073ffffffffffffffffffffffffffffffffffffffff82169050919050565b6000611bdb82611bb0565b9050919050565b611beb81611bd0565b82525050565b60008115159050919050565b611c0681611bf1565b82525050565b61012082016000820151611c236000850182611ba1565b506020820151611c366020850182611be2565b506040820151611c496040850182611be2565b506060820151611c5c6060850182611ba1565b506080820151611c6f6080850182611bfd565b5060a0820151611c8260a0850182611bfd565b5060c0820151611c9560c0850182611ba1565b5060e0820151611ca860e0850182611be2565b50610100820151611cbd610100850182611ba1565b50505050565b600061012082019050611cd96000830184611c0c565b92915050565b611ce881611b3e565b82525050565b6000602082019050611d036000830184611cdf565b92915050565b611d1281611bd0565b8114611d1d57600080fd5b50565b600081359050611d2f81611d09565b92915050565b60008060408385031215611d4c57611d4b611b39565b5b6000611d5a85828601611d20565b9250506020611d6b85828601611b5f565b9150509250929050565b611d7e81611bd0565b82525050565b6000602082019050611d996000830184611d75565b92915050565b611da881611bf1565b8114611db357600080fd5b50565b600081359050611dc581611d9f565b92915050565b600080600080600060a08688031215611de757611de6611b39565b5b6000611df588828901611d20565b9550506020611e0688828901611b5f565b9450506040611e1788828901611b5f565b9350506060611e2888828901611db6565b9250506080611e3988828901611b5f565b9150509295509295909350565b611e4f81611bf1565b82525050565b600061012082019050611e6b600083018c611cdf565b611e78602083018b611d75565b611e85604083018a611d75565b611e926060830189611cdf565b611e9f6080830188611e46565b611eac60a0830187611e46565b611eb960c0830186611cdf565b611ec660e0830185611d75565b611ed4610100830184611cdf565b9a9950505050505050505050565b600060208284031215611ef857611ef7611b39565b5b6000611f0684828501611d20565b91505092915050565b600082825260208201905092915050565b7f4c697374696e67206e6f74206163746976650000000000000000000000000000600082015250565b6000611f56601283611f0f565b9150611f6182611f20565b602082019050919050565b60006020820190508181036000830152611f8581611f49565b9050919050565b7f4e6f7420617574686f72697a6564000000000000000000000000000000000000600082015250565b6000611fc2600e83611f0f565b9150611fcd82611f8c565b602082019050919050565b60006020820190508181036000830152611ff181611fb5565b9050919050565b7f46656520746f6f20686967680000000000000000000000000000000000000000600082015250565b600061202e600c83611f0f565b915061203982611ff8565b602082019050919050565b6000602082019050818103600083015261205d81612021565b9050919050565b7f4e6f7420616e2061756374696f6e000000000000000000000000000000000000600082015250565b600061209a600e83611f0f565b91506120a582612064565b602082019050919050565b600060208201905081810360008301526120c98161208d565b9050919050565b7f41756374696f6e20656e64656400000000000000000000000000000000000000600082015250565b6000612106600d83611f0f565b9150612111826120d0565b602082019050919050565b60006020820190508181036000830152612135816120f9565b9050919050565b7f42696420746f6f206c6f77000000000000000000000000000000000000000000600082015250565b6000612172600b83611f0f565b915061217d8261213c565b602082019050919050565b600060208201905081810360008301526121a181612165565b9050919050565b7f43616e6e6f7420626964206f6e20796f7572206f776e206974656d0000000000600082015250565b60006121de601b83611f0f565b91506121e9826121a8565b602082019050919050565b6000602082019050818103600083015261220d816121d1565b9050919050565b60006040820190506122296000830185611d75565b6122366020830184611cdf565b9392505050565b60008151905061224c81611d09565b92915050565b60006020828403121561226857612267611b39565b5b60006122768482850161223d565b91505092915050565b7f4e6f74206f776e65720000000000000000000000000000000000000000000000600082015250565b60006122b5600983611f0f565b91506122c08261227f565b602082019050919050565b600060208201905081810360008301526122e4816122a8565b9050919050565b60006040820190506123006000830185611d75565b61230d6020830184611d75565b9392505050565b60008151905061232381611d9f565b92915050565b60006020828403121561233f5761233e611b39565b5b600061234d84828501612314565b91505092915050565b7f4e6f7420617070726f7665640000000000000000000000000000000000000000600082015250565b600061238c600c83611f0f565b915061239782612356565b602082019050919050565b600060208201905081810360008301526123bb8161237f565b9050919050565b7f5072696365206d7573742062652067726561746572207468616e203000000000600082015250565b60006123f8601c83611f0f565b9150612403826123c2565b602082019050919050565b60006020820190508181036000830152612427816123eb565b9050919050565b7f4e487b7100000000000000000000000000000000000000000000000000000000600052601160045260246000fd5b600061246882611b3e565b91507fffffffffffffffffffffffffffffffffffffffffffffffffffffffffffffffff820361249a5761249961242e565b5b600182019050919050565b60006124b082611b3e565b91506124bb83611b3e565b92508282019050808211156124d3576124d261242e565b5b92915050565b7f41756374696f6e207374696c6c20616374697665000000000000000000000000600082015250565b600061250f601483611f0f565b915061251a826124d9565b602082019050919050565b6000602082019050818103600083015261253e81612502565b9050919050565b600061255082611b3e565b915061255b83611b3e565b925082820261256981611b3e565b915082820484148315176125805761257f61242e565b5b5092915050565b7f4e487b7100000000000000000000000000000000000000000000000000000000600052601260045260246000fd5b60006125c182611b3e565b91506125cc83611b3e565b9250826125dc576125db612587565b5b828204905092915050565b60006125f282611b3e565b91506125fd83611b3e565b92508282039050818111156126155761261461242e565b5b92915050565b60006060820190506126306000830186611d75565b61263d6020830185611d75565b61264a6040830184611cdf565b949350505050565b7f4974656d2069732061756374696f6e0000000000000000000000000000000000600082015250565b6000612688600f83611f0f565b915061269382612652565b602082019050919050565b600060208201905081810360008301526126b78161267b565b9050919050565b7f496e73756666696369656e74207061796d656e74000000000000000000000000600082015250565b60006126f4601483611f0f565b91506126ff826126be565b602082019050919050565b60006020820190508181036000830152612723816126e7565b9050919050565b7f43616e6e6f742062757920796f7572206f776e206974656d0000000000000000600082015250565b6000612760601883611f0f565b915061276b8261272a565b602082019050919050565b6000602082019050818103600083015261278f81612753565b905091905056fea264697066735822122049b95fca8d5e25a87053ada644b5fa762114fb124fe8ace1856a730601d8f01f64736f6c63430008140033",
  "linkReferences": {},
  "deployedLinkReferences": {}
}